{
  "address": "0xBa8F3298b316cE02fC05323500508525dB54dB98",
  "abi": [
    {
      "inputs": [
        {
          "internalType": "address",
          "name": "_rewardsDistribution",
          "type": "address"
        },
        {
          "internalType": "address",
          "name": "_rewardsToken",
          "type": "address"
        },
        {
          "internalType": "address",
          "name": "_stakingToken",
          "type": "address"
        },
        {
          "internalType": "uint256",
          "name": "_rewardsDuration",
          "type": "uint256"
        }
      ],
      "stateMutability": "nonpayable",
      "type": "constructor"
    },
    {
      "anonymous": false,
      "inputs": [
        {
          "indexed": false,
          "internalType": "uint256",
          "name": "reward",
          "type": "uint256"
        }
      ],
      "name": "RewardAdded",
      "type": "event"
    },
    {
      "anonymous": false,
      "inputs": [
        {
          "indexed": true,
          "internalType": "address",
          "name": "user",
          "type": "address"
        },
        {
          "indexed": false,
          "internalType": "uint256",
          "name": "reward",
          "type": "uint256"
        }
      ],
      "name": "RewardPaid",
      "type": "event"
    },
    {
      "anonymous": false,
      "inputs": [
        {
          "indexed": true,
          "internalType": "address",
          "name": "user",
          "type": "address"
        },
        {
          "indexed": false,
          "internalType": "uint256",
          "name": "amount",
          "type": "uint256"
        }
      ],
      "name": "Staked",
      "type": "event"
    },
    {
      "anonymous": false,
      "inputs": [
        {
          "indexed": true,
          "internalType": "address",
          "name": "user",
          "type": "address"
        },
        {
          "indexed": false,
          "internalType": "uint256",
          "name": "amount",
          "type": "uint256"
        }
      ],
      "name": "Withdrawn",
      "type": "event"
    },
    {
      "inputs": [
        {
          "internalType": "address",
          "name": "account",
          "type": "address"
        }
      ],
      "name": "balanceOf",
      "outputs": [
        {
          "internalType": "uint256",
          "name": "",
          "type": "uint256"
        }
      ],
      "stateMutability": "view",
      "type": "function"
    },
    {
      "inputs": [
        {
          "internalType": "address",
          "name": "account",
          "type": "address"
        }
      ],
      "name": "earned",
      "outputs": [
        {
          "internalType": "uint256",
          "name": "",
          "type": "uint256"
        }
      ],
      "stateMutability": "view",
      "type": "function"
    },
    {
      "inputs": [],
      "name": "exit",
      "outputs": [],
      "stateMutability": "nonpayable",
      "type": "function"
    },
    {
      "inputs": [],
      "name": "getReward",
      "outputs": [],
      "stateMutability": "nonpayable",
      "type": "function"
    },
    {
      "inputs": [],
      "name": "getRewardForDuration",
      "outputs": [
        {
          "internalType": "uint256",
          "name": "",
          "type": "uint256"
        }
      ],
      "stateMutability": "view",
      "type": "function"
    },
    {
      "inputs": [],
      "name": "lastTimeRewardApplicable",
      "outputs": [
        {
          "internalType": "uint256",
          "name": "",
          "type": "uint256"
        }
      ],
      "stateMutability": "view",
      "type": "function"
    },
    {
      "inputs": [],
      "name": "lastUpdateTime",
      "outputs": [
        {
          "internalType": "uint256",
          "name": "",
          "type": "uint256"
        }
      ],
      "stateMutability": "view",
      "type": "function"
    },
    {
      "inputs": [
        {
          "internalType": "uint256",
          "name": "reward",
          "type": "uint256"
        }
      ],
      "name": "notifyRewardAmount",
      "outputs": [],
      "stateMutability": "nonpayable",
      "type": "function"
    },
    {
      "inputs": [],
      "name": "periodFinish",
      "outputs": [
        {
          "internalType": "uint256",
          "name": "",
          "type": "uint256"
        }
      ],
      "stateMutability": "view",
      "type": "function"
    },
    {
      "inputs": [],
      "name": "rewardPerToken",
      "outputs": [
        {
          "internalType": "uint256",
          "name": "",
          "type": "uint256"
        }
      ],
      "stateMutability": "view",
      "type": "function"
    },
    {
      "inputs": [],
      "name": "rewardPerTokenStored",
      "outputs": [
        {
          "internalType": "uint256",
          "name": "",
          "type": "uint256"
        }
      ],
      "stateMutability": "view",
      "type": "function"
    },
    {
      "inputs": [],
      "name": "rewardRate",
      "outputs": [
        {
          "internalType": "uint256",
          "name": "",
          "type": "uint256"
        }
      ],
      "stateMutability": "view",
      "type": "function"
    },
    {
      "inputs": [
        {
          "internalType": "address",
          "name": "",
          "type": "address"
        }
      ],
      "name": "rewards",
      "outputs": [
        {
          "internalType": "uint256",
          "name": "",
          "type": "uint256"
        }
      ],
      "stateMutability": "view",
      "type": "function"
    },
    {
      "inputs": [],
      "name": "rewardsDistribution",
      "outputs": [
        {
          "internalType": "address",
          "name": "",
          "type": "address"
        }
      ],
      "stateMutability": "view",
      "type": "function"
    },
    {
      "inputs": [],
      "name": "rewardsDuration",
      "outputs": [
        {
          "internalType": "uint256",
          "name": "",
          "type": "uint256"
        }
      ],
      "stateMutability": "view",
      "type": "function"
    },
    {
      "inputs": [],
      "name": "rewardsToken",
      "outputs": [
        {
          "internalType": "contract IERC20",
          "name": "",
          "type": "address"
        }
      ],
      "stateMutability": "view",
      "type": "function"
    },
    {
      "inputs": [
        {
          "internalType": "uint256",
          "name": "amount",
          "type": "uint256"
        }
      ],
      "name": "stake",
      "outputs": [],
      "stateMutability": "nonpayable",
      "type": "function"
    },
    {
      "inputs": [],
      "name": "stakingToken",
      "outputs": [
        {
          "internalType": "contract IERC20",
          "name": "",
          "type": "address"
        }
      ],
      "stateMutability": "view",
      "type": "function"
    },
    {
      "inputs": [],
      "name": "totalSupply",
      "outputs": [
        {
          "internalType": "uint256",
          "name": "",
          "type": "uint256"
        }
      ],
      "stateMutability": "view",
      "type": "function"
    },
    {
      "inputs": [
        {
          "internalType": "address",
          "name": "",
          "type": "address"
        }
      ],
      "name": "userRewardPerTokenPaid",
      "outputs": [
        {
          "internalType": "uint256",
          "name": "",
          "type": "uint256"
        }
      ],
      "stateMutability": "view",
      "type": "function"
    },
    {
      "inputs": [
        {
          "internalType": "uint256",
          "name": "amount",
          "type": "uint256"
        }
      ],
      "name": "withdraw",
      "outputs": [],
      "stateMutability": "nonpayable",
      "type": "function"
    }
  ],
  "transactionHash": "0xdc5e54812f8361ac95003a0efd6bdee16410f7593b8d58d731e8a3d29dd617ce",
  "args": [
    "0xf5d8B2A8f8529dEc4AAEB753Ad17D1938D312EaB",
    "0x3d4DF72c7C70dfD127f5470ED7350fBd7bF63f7B",
    "0x068F465A140131f6996Bbc5c5B7435A1a52c7DA2",
    604800
  ],
  "numDeployments": 1,
  "solcInputHash": "f663696ba650ecc3d8a1c1e3c5694285",
  "bytecode": "0x6080604052600060045560006005553480156200001b57600080fd5b506040516200220d3803806200220d8339818101604052810190620000419190620001c0565b6001808190555082600260006101000a81548173ffffffffffffffffffffffffffffffffffffffff021916908373ffffffffffffffffffffffffffffffffffffffff16021790555081600360006101000a81548173ffffffffffffffffffffffffffffffffffffffff021916908373ffffffffffffffffffffffffffffffffffffffff160217905550836000806101000a81548173ffffffffffffffffffffffffffffffffffffffff021916908373ffffffffffffffffffffffffffffffffffffffff160217905550806006819055505050505062000232565b600080fd5b600073ffffffffffffffffffffffffffffffffffffffff82169050919050565b60006200014d8262000120565b9050919050565b6200015f8162000140565b81146200016b57600080fd5b50565b6000815190506200017f8162000154565b92915050565b6000819050919050565b6200019a8162000185565b8114620001a657600080fd5b50565b600081519050620001ba816200018f565b92915050565b60008060008060808587031215620001dd57620001dc6200011b565b5b6000620001ed878288016200016e565b945050602062000200878288016200016e565b935050604062000213878288016200016e565b92505060606200022687828801620001a9565b91505092959194509250565b611fcb80620002426000396000f3fe608060405234801561001057600080fd5b50600436106101365760003560e01c806372f702f3116100b8578063c8f33c911161007c578063c8f33c911461032b578063cd3daf9d14610349578063d1af0c7d14610367578063df136d6514610385578063e9fad8ee146103a3578063ebe2b12b146103ad57610136565b806372f702f3146102855780637b0a47ee146102a357806380faa57d146102c15780638b876347146102df578063a694fc3a1461030f57610136565b8063386a9525116100ff578063386a9525146101f35780633c6b16ab146102115780633d18b9121461022d5780633fc6df6e1461023757806370a082311461025557610136565b80628cc2621461013b5780630700037d1461016b57806318160ddd1461019b5780631c1f78eb146101b95780632e1a7d4d146101d7575b600080fd5b610155600480360381019061015091906116d2565b6103cb565b6040516101629190611718565b60405180910390f35b610185600480360381019061018091906116d2565b6104e9565b6040516101929190611718565b60405180910390f35b6101a3610501565b6040516101b09190611718565b60405180910390f35b6101c161050b565b6040516101ce9190611718565b60405180910390f35b6101f160048036038101906101ec919061175f565b610529565b005b6101fb6107f4565b6040516102089190611718565b60405180910390f35b61022b6004803603810190610226919061175f565b6107fa565b005b610235610b5e565b005b61023f610dc9565b60405161024c919061179b565b60405180910390f35b61026f600480360381019061026a91906116d2565b610ded565b60405161027c9190611718565b60405180910390f35b61028d610e36565b60405161029a9190611815565b60405180910390f35b6102ab610e5c565b6040516102b89190611718565b60405180910390f35b6102c9610e62565b6040516102d69190611718565b60405180910390f35b6102f960048036038101906102f491906116d2565b610e75565b6040516103069190611718565b60405180910390f35b6103296004803603810190610324919061175f565b610e8d565b005b61033361115a565b6040516103409190611718565b60405180910390f35b610351611160565b60405161035e9190611718565b60405180910390f35b61036f6111ee565b60405161037c9190611815565b60405180910390f35b61038d611214565b60405161039a9190611718565b60405180910390f35b6103ab61121a565b005b6103b561126c565b6040516103c29190611718565b60405180910390f35b60006104e2600a60008473ffffffffffffffffffffffffffffffffffffffff1673ffffffffffffffffffffffffffffffffffffffff168152602001908152602001600020546104d4670de0b6b3a76400006104c6610478600960008973ffffffffffffffffffffffffffffffffffffffff1673ffffffffffffffffffffffffffffffffffffffff1681526020019081526020016000205461046a611160565b61127290919063ffffffff16565b600c60008973ffffffffffffffffffffffffffffffffffffffff1673ffffffffffffffffffffffffffffffffffffffff1681526020019081526020016000205461128890919063ffffffff16565b61129e90919063ffffffff16565b6112b490919063ffffffff16565b9050919050565b600a6020528060005260406000206000915090505481565b6000600b54905090565b600061052460065460055461128890919063ffffffff16565b905090565b6002600154141561056f576040517f08c379a00000000000000000000000000000000000000000000000000000000081526004016105669061188d565b60405180910390fd5b600260018190555033610580611160565b60088190555061058e610e62565b600781905550600073ffffffffffffffffffffffffffffffffffffffff168173ffffffffffffffffffffffffffffffffffffffff161461065b576105d1816103cb565b600a60008373ffffffffffffffffffffffffffffffffffffffff1673ffffffffffffffffffffffffffffffffffffffff16815260200190815260200160002081905550600854600960008373ffffffffffffffffffffffffffffffffffffffff1673ffffffffffffffffffffffffffffffffffffffff168152602001908152602001600020819055505b6000821161069e576040517f08c379a0000000000000000000000000000000000000000000000000000000008152600401610695906118f9565b60405180910390fd5b6106b382600b5461127290919063ffffffff16565b600b8190555061070b82600c60003373ffffffffffffffffffffffffffffffffffffffff1673ffffffffffffffffffffffffffffffffffffffff1681526020019081526020016000205461127290919063ffffffff16565b600c60003373ffffffffffffffffffffffffffffffffffffffff1673ffffffffffffffffffffffffffffffffffffffff1681526020019081526020016000208190555061079b3383600360009054906101000a900473ffffffffffffffffffffffffffffffffffffffff1673ffffffffffffffffffffffffffffffffffffffff166112ca9092919063ffffffff16565b3373ffffffffffffffffffffffffffffffffffffffff167f7084f5476618d8e60b11ef0d7d3f06914655adb8793e28ff7f018d4c76d505d5836040516107e19190611718565b60405180910390a2506001808190555050565b60065481565b60008054906101000a900473ffffffffffffffffffffffffffffffffffffffff1673ffffffffffffffffffffffffffffffffffffffff163373ffffffffffffffffffffffffffffffffffffffff1614610888576040517f08c379a000000000000000000000000000000000000000000000000000000000815260040161087f9061198b565b60405180910390fd5b6000610892611160565b6008819055506108a0610e62565b600781905550600073ffffffffffffffffffffffffffffffffffffffff168173ffffffffffffffffffffffffffffffffffffffff161461096d576108e3816103cb565b600a60008373ffffffffffffffffffffffffffffffffffffffff1673ffffffffffffffffffffffffffffffffffffffff16815260200190815260200160002081905550600854600960008373ffffffffffffffffffffffffffffffffffffffff1673ffffffffffffffffffffffffffffffffffffffff168152602001908152602001600020819055505b60045442106109965761098b6006548361129e90919063ffffffff16565b6005819055506109f8565b60006109ad4260045461127290919063ffffffff16565b905060006109c66005548361128890919063ffffffff16565b90506109ef6006546109e183876112b490919063ffffffff16565b61129e90919063ffffffff16565b60058190555050505b6000600260009054906101000a900473ffffffffffffffffffffffffffffffffffffffff1673ffffffffffffffffffffffffffffffffffffffff166370a08231306040518263ffffffff1660e01b8152600401610a55919061179b565b60206040518083038186803b158015610a6d57600080fd5b505afa158015610a81573d6000803e3d6000fd5b505050506040513d601f19601f82011682018060405250810190610aa591906119c0565b9050610abc6006548261129e90919063ffffffff16565b6005541115610b00576040517f08c379a0000000000000000000000000000000000000000000000000000000008152600401610af790611a39565b60405180910390fd5b42600781905550610b1c600654426112b490919063ffffffff16565b6004819055507fde88a922e0d3b88b24e9623efeb464919c6bf9f66857a65e2bfcf2ce87a9433d83604051610b519190611718565b60405180910390a1505050565b60026001541415610ba4576040517f08c379a0000000000000000000000000000000000000000000000000000000008152600401610b9b9061188d565b60405180910390fd5b600260018190555033610bb5611160565b600881905550610bc3610e62565b600781905550600073ffffffffffffffffffffffffffffffffffffffff168173ffffffffffffffffffffffffffffffffffffffff1614610c9057610c06816103cb565b600a60008373ffffffffffffffffffffffffffffffffffffffff1673ffffffffffffffffffffffffffffffffffffffff16815260200190815260200160002081905550600854600960008373ffffffffffffffffffffffffffffffffffffffff1673ffffffffffffffffffffffffffffffffffffffff168152602001908152602001600020819055505b6000600a60003373ffffffffffffffffffffffffffffffffffffffff1673ffffffffffffffffffffffffffffffffffffffff1681526020019081526020016000205490506000811115610dbe576000600a60003373ffffffffffffffffffffffffffffffffffffffff1673ffffffffffffffffffffffffffffffffffffffff16815260200190815260200160002081905550610d6f3382600260009054906101000a900473ffffffffffffffffffffffffffffffffffffffff1673ffffffffffffffffffffffffffffffffffffffff166112ca9092919063ffffffff16565b3373ffffffffffffffffffffffffffffffffffffffff167fe2403640ba68fed3a2f88b7557551d1993f84b99bb10ff833f0cf8db0c5e048682604051610db59190611718565b60405180910390a25b505060018081905550565b60008054906101000a900473ffffffffffffffffffffffffffffffffffffffff1681565b6000600c60008373ffffffffffffffffffffffffffffffffffffffff1673ffffffffffffffffffffffffffffffffffffffff168152602001908152602001600020549050919050565b600360009054906101000a900473ffffffffffffffffffffffffffffffffffffffff1681565b60055481565b6000610e7042600454611350565b905090565b60096020528060005260406000206000915090505481565b60026001541415610ed3576040517f08c379a0000000000000000000000000000000000000000000000000000000008152600401610eca9061188d565b60405180910390fd5b600260018190555033610ee4611160565b600881905550610ef2610e62565b600781905550600073ffffffffffffffffffffffffffffffffffffffff168173ffffffffffffffffffffffffffffffffffffffff1614610fbf57610f35816103cb565b600a60008373ffffffffffffffffffffffffffffffffffffffff1673ffffffffffffffffffffffffffffffffffffffff16815260200190815260200160002081905550600854600960008373ffffffffffffffffffffffffffffffffffffffff1673ffffffffffffffffffffffffffffffffffffffff168152602001908152602001600020819055505b60008211611002576040517f08c379a0000000000000000000000000000000000000000000000000000000008152600401610ff990611aa5565b60405180910390fd5b61101782600b546112b490919063ffffffff16565b600b8190555061106f82600c60003373ffffffffffffffffffffffffffffffffffffffff1673ffffffffffffffffffffffffffffffffffffffff168152602001908152602001600020546112b490919063ffffffff16565b600c60003373ffffffffffffffffffffffffffffffffffffffff1673ffffffffffffffffffffffffffffffffffffffff16815260200190815260200160002081905550611101333084600360009054906101000a900473ffffffffffffffffffffffffffffffffffffffff1673ffffffffffffffffffffffffffffffffffffffff16611369909392919063ffffffff16565b3373ffffffffffffffffffffffffffffffffffffffff167f9e71bc8eea02a63969f509818f2dafb9254532904319f9dbda79b67bd34a5f3d836040516111479190611718565b60405180910390a2506001808190555050565b60075481565b600080600b5414156111765760085490506111eb565b6111e86111d7600b546111c9670de0b6b3a76400006111bb6005546111ad60075461119f610e62565b61127290919063ffffffff16565b61128890919063ffffffff16565b61128890919063ffffffff16565b61129e90919063ffffffff16565b6008546112b490919063ffffffff16565b90505b90565b600260009054906101000a900473ffffffffffffffffffffffffffffffffffffffff1681565b60085481565b611262600c60003373ffffffffffffffffffffffffffffffffffffffff1673ffffffffffffffffffffffffffffffffffffffff16815260200190815260200160002054610529565b61126a610b5e565b565b60045481565b600081836112809190611af4565b905092915050565b600081836112969190611b28565b905092915050565b600081836112ac9190611bb1565b905092915050565b600081836112c29190611be2565b905092915050565b61134b8363a9059cbb60e01b84846040516024016112e9929190611c38565b604051602081830303815290604052907bffffffffffffffffffffffffffffffffffffffffffffffffffffffff19166020820180517bffffffffffffffffffffffffffffffffffffffffffffffffffffffff83818316178352505050506113f2565b505050565b600081831061135f5781611361565b825b905092915050565b6113ec846323b872dd60e01b85858560405160240161138a93929190611c61565b604051602081830303815290604052907bffffffffffffffffffffffffffffffffffffffffffffffffffffffff19166020820180517bffffffffffffffffffffffffffffffffffffffffffffffffffffffff83818316178352505050506113f2565b50505050565b6000611454826040518060400160405280602081526020017f5361666545524332303a206c6f772d6c6576656c2063616c6c206661696c65648152508573ffffffffffffffffffffffffffffffffffffffff166114b99092919063ffffffff16565b90506000815111156114b457808060200190518101906114749190611cd0565b6114b3576040517f08c379a00000000000000000000000000000000000000000000000000000000081526004016114aa90611d6f565b60405180910390fd5b5b505050565b60606114c884846000856114d1565b90509392505050565b606082471015611516576040517f08c379a000000000000000000000000000000000000000000000000000000000815260040161150d90611e01565b60405180910390fd5b61151f856115e5565b61155e576040517f08c379a000000000000000000000000000000000000000000000000000000000815260040161155590611e6d565b60405180910390fd5b6000808673ffffffffffffffffffffffffffffffffffffffff1685876040516115879190611f07565b60006040518083038185875af1925050503d80600081146115c4576040519150601f19603f3d011682016040523d82523d6000602084013e6115c9565b606091505b50915091506115d9828286611608565b92505050949350505050565b6000808273ffffffffffffffffffffffffffffffffffffffff163b119050919050565b6060831561161857829050611668565b60008351111561162b5782518084602001fd5b816040517f08c379a000000000000000000000000000000000000000000000000000000000815260040161165f9190611f73565b60405180910390fd5b9392505050565b600080fd5b600073ffffffffffffffffffffffffffffffffffffffff82169050919050565b600061169f82611674565b9050919050565b6116af81611694565b81146116ba57600080fd5b50565b6000813590506116cc816116a6565b92915050565b6000602082840312156116e8576116e761166f565b5b60006116f6848285016116bd565b91505092915050565b6000819050919050565b611712816116ff565b82525050565b600060208201905061172d6000830184611709565b92915050565b61173c816116ff565b811461174757600080fd5b50565b60008135905061175981611733565b92915050565b6000602082840312156117755761177461166f565b5b60006117838482850161174a565b91505092915050565b61179581611694565b82525050565b60006020820190506117b0600083018461178c565b92915050565b6000819050919050565b60006117db6117d66117d184611674565b6117b6565b611674565b9050919050565b60006117ed826117c0565b9050919050565b60006117ff826117e2565b9050919050565b61180f816117f4565b82525050565b600060208201905061182a6000830184611806565b92915050565b600082825260208201905092915050565b7f5265656e7472616e637947756172643a207265656e7472616e742063616c6c00600082015250565b6000611877601f83611830565b915061188282611841565b602082019050919050565b600060208201905081810360008301526118a68161186a565b9050919050565b7f43616e6e6f742077697468647261772030000000000000000000000000000000600082015250565b60006118e3601183611830565b91506118ee826118ad565b602082019050919050565b60006020820190508181036000830152611912816118d6565b9050919050565b7f43616c6c6572206973206e6f742052657761726473446973747269627574696f60008201527f6e20636f6e747261637400000000000000000000000000000000000000000000602082015250565b6000611975602a83611830565b915061198082611919565b604082019050919050565b600060208201905081810360008301526119a481611968565b9050919050565b6000815190506119ba81611733565b92915050565b6000602082840312156119d6576119d561166f565b5b60006119e4848285016119ab565b91505092915050565b7f50726f76696465642072657761726420746f6f20686967680000000000000000600082015250565b6000611a23601883611830565b9150611a2e826119ed565b602082019050919050565b60006020820190508181036000830152611a5281611a16565b9050919050565b7f43616e6e6f74207374616b652030000000000000000000000000000000000000600082015250565b6000611a8f600e83611830565b9150611a9a82611a59565b602082019050919050565b60006020820190508181036000830152611abe81611a82565b9050919050565b7f4e487b7100000000000000000000000000000000000000000000000000000000600052601160045260246000fd5b6000611aff826116ff565b9150611b0a836116ff565b925082821015611b1d57611b1c611ac5565b5b828203905092915050565b6000611b33826116ff565b9150611b3e836116ff565b9250817fffffffffffffffffffffffffffffffffffffffffffffffffffffffffffffffff0483118215151615611b7757611b76611ac5565b5b828202905092915050565b7f4e487b7100000000000000000000000000000000000000000000000000000000600052601260045260246000fd5b6000611bbc826116ff565b9150611bc7836116ff565b925082611bd757611bd6611b82565b5b828204905092915050565b6000611bed826116ff565b9150611bf8836116ff565b9250827fffffffffffffffffffffffffffffffffffffffffffffffffffffffffffffffff03821115611c2d57611c2c611ac5565b5b828201905092915050565b6000604082019050611c4d600083018561178c565b611c5a6020830184611709565b9392505050565b6000606082019050611c76600083018661178c565b611c83602083018561178c565b611c906040830184611709565b949350505050565b60008115159050919050565b611cad81611c98565b8114611cb857600080fd5b50565b600081519050611cca81611ca4565b92915050565b600060208284031215611ce657611ce561166f565b5b6000611cf484828501611cbb565b91505092915050565b7f5361666545524332303a204552433230206f7065726174696f6e20646964206e60008201527f6f74207375636365656400000000000000000000000000000000000000000000602082015250565b6000611d59602a83611830565b9150611d6482611cfd565b604082019050919050565b60006020820190508181036000830152611d8881611d4c565b9050919050565b7f416464726573733a20696e73756666696369656e742062616c616e636520666f60008201527f722063616c6c0000000000000000000000000000000000000000000000000000602082015250565b6000611deb602683611830565b9150611df682611d8f565b604082019050919050565b60006020820190508181036000830152611e1a81611dde565b9050919050565b7f416464726573733a2063616c6c20746f206e6f6e2d636f6e7472616374000000600082015250565b6000611e57601d83611830565b9150611e6282611e21565b602082019050919050565b60006020820190508181036000830152611e8681611e4a565b9050919050565b600081519050919050565b600081905092915050565b60005b83811015611ec1578082015181840152602081019050611ea6565b83811115611ed0576000848401525b50505050565b6000611ee182611e8d565b611eeb8185611e98565b9350611efb818560208601611ea3565b80840191505092915050565b6000611f138284611ed6565b915081905092915050565b600081519050919050565b6000601f19601f8301169050919050565b6000611f4582611f1e565b611f4f8185611830565b9350611f5f818560208601611ea3565b611f6881611f29565b840191505092915050565b60006020820190508181036000830152611f8d8184611f3a565b90509291505056fea2646970667358221220f141631be0d77c4f36210698dfd582756603a45dbc85d66e2b5f3216ac9c514064736f6c63430008090033",
  "devdoc": {
    "kind": "dev",
    "methods": {},
    "version": 1
  },
  "userdoc": {
    "kind": "user",
    "methods": {},
    "version": 1
  },
  "storageLayout": {
    "storage": [
      {
        "astId": 1549,
        "contract": "contracts/StakingRewardsV2.sol:StakingRewardsV2",
        "label": "rewardsDistribution",
        "offset": 0,
        "slot": "0",
        "type": "t_address"
      },
      {
        "astId": 10,
        "contract": "contracts/StakingRewardsV2.sol:StakingRewardsV2",
        "label": "_status",
        "offset": 0,
        "slot": "1",
        "type": "t_uint256"
      },
      {
        "astId": 1595,
        "contract": "contracts/StakingRewardsV2.sol:StakingRewardsV2",
        "label": "rewardsToken",
        "offset": 0,
        "slot": "2",
        "type": "t_contract(IERC20)117"
      },
      {
        "astId": 1598,
        "contract": "contracts/StakingRewardsV2.sol:StakingRewardsV2",
        "label": "stakingToken",
        "offset": 0,
        "slot": "3",
        "type": "t_contract(IERC20)117"
      },
      {
        "astId": 1601,
        "contract": "contracts/StakingRewardsV2.sol:StakingRewardsV2",
        "label": "periodFinish",
        "offset": 0,
        "slot": "4",
        "type": "t_uint256"
      },
      {
        "astId": 1604,
        "contract": "contracts/StakingRewardsV2.sol:StakingRewardsV2",
        "label": "rewardRate",
        "offset": 0,
        "slot": "5",
        "type": "t_uint256"
      },
      {
        "astId": 1606,
        "contract": "contracts/StakingRewardsV2.sol:StakingRewardsV2",
        "label": "rewardsDuration",
        "offset": 0,
        "slot": "6",
        "type": "t_uint256"
      },
      {
        "astId": 1608,
        "contract": "contracts/StakingRewardsV2.sol:StakingRewardsV2",
        "label": "lastUpdateTime",
        "offset": 0,
        "slot": "7",
        "type": "t_uint256"
      },
      {
        "astId": 1610,
        "contract": "contracts/StakingRewardsV2.sol:StakingRewardsV2",
        "label": "rewardPerTokenStored",
        "offset": 0,
        "slot": "8",
        "type": "t_uint256"
      },
      {
        "astId": 1614,
        "contract": "contracts/StakingRewardsV2.sol:StakingRewardsV2",
        "label": "userRewardPerTokenPaid",
        "offset": 0,
        "slot": "9",
        "type": "t_mapping(t_address,t_uint256)"
      },
      {
        "astId": 1618,
        "contract": "contracts/StakingRewardsV2.sol:StakingRewardsV2",
        "label": "rewards",
        "offset": 0,
        "slot": "10",
        "type": "t_mapping(t_address,t_uint256)"
      },
      {
        "astId": 1620,
        "contract": "contracts/StakingRewardsV2.sol:StakingRewardsV2",
        "label": "_totalSupply",
        "offset": 0,
        "slot": "11",
        "type": "t_uint256"
      },
      {
        "astId": 1624,
        "contract": "contracts/StakingRewardsV2.sol:StakingRewardsV2",
        "label": "_balances",
        "offset": 0,
        "slot": "12",
        "type": "t_mapping(t_address,t_uint256)"
      }
    ],
    "types": {
      "t_address": {
        "encoding": "inplace",
        "label": "address",
        "numberOfBytes": "20"
      },
      "t_contract(IERC20)117": {
        "encoding": "inplace",
        "label": "contract IERC20",
        "numberOfBytes": "20"
      },
      "t_mapping(t_address,t_uint256)": {
        "encoding": "mapping",
        "key": "t_address",
        "label": "mapping(address => uint256)",
        "numberOfBytes": "32",
        "value": "t_uint256"
      },
      "t_uint256": {
        "encoding": "inplace",
        "label": "uint256",
        "numberOfBytes": "32"
      }
    }
  }
}